:100000000C942A000C9447000C9447000C94470071
:100010000C9447000C9447000C9447000C94470044
:100020000C9447000C9447000C9447000C94470034
:100030000C9447000C9447000C9447000C94470024
:100040000C9447000C9447000C9447000C94470014
:100050000C94470011241FBECFE5D4E0DEBFCDBF16
:1000600010E0A0E6B0E0E2E0F1E002C005900D9201
:10007000A036B107D9F710E0A0E6B0E001C01D92AC
:10008000A036B107E1F70E9449000C947F000C9460
:1000900000001ABA8FEF81BB85BB87BB80E48BBBA6
:1000A00080E88BBB80E28BBB7AEA28EC30E065E528
:1000B00050E840EA89B3807E803689F472BB88EECE
:1000C00093E0F9013197F1F70197D9F762BB88EE18
:1000D00093E0F9013197F1F70197D9F701C012BA0E
:1000E00089B3807E803A11F455BB01C015BA89B33B
:1000F000807E803C11F448BBDDCF18BADBCFF8948A
:02010000FFCF2F
:00000001FF
